:100000000C94A0000C94C8000C94C8000C94C80078
:100010000C94C8000C94C8000C94C8000C94C80040
:100020000C94C8000C94C8000C94C8000C94C80030
:100030000C94C8000C94C8000C94C8000C94C80020
:100040000C94DC070C94C8000C944C080C94260803
:100050000C94C8000C94C8000C94C8000C94C80000
:100060000C94C8000C94C8006364696E6F7073755B
:1000700078585B00206E6F726D3D007261773D00B5
:100080002062723D007267623D2800207363656ED6
:100090003D006E3D004F4B205261696E626F7700EC
:1000A0003F20556E6B6E6F776E004F4B205374611F
:1000B000746963004F4B2050756C73650053636522
:1000C0006E6172696F496E6465783D0000000000E2
:1000D000240027002A0000000000250028002B0033
:1000E00004040404040404040202020202020303DE
:1000F00003030303010204081020408001020408E6
:100100001020010204081020000000080002010075
:10011000000304070000000000000000496E616356
:10012000746976654D733D004C696768743D005095
:100130006F743D0053747261746567793D007E0889
:1001400011241FBECFEFD8E0DEBFCDBF12E0A0E08C
:10015000B1E0E6EBF8E202C005900D92A835B107D8
:10016000D9F723E0A8E5B2E001C01D92AF38B2078D
:10017000E1F710E0C0EAD0E004C02197FE010E9440
:100180002E0DCF39D107C9F70E9450090C9459148C
:100190000C94000090E0FC01E85FFE4F2491FC010C
:1001A000EC50FF4F3491FC01E052FF4FE491EE23FD
:1001B000C9F0222339F0233001F1A8F4213019F1DC
:1001C000223029F1F0E0EE0FFF1FEA52FF4FA59118
:1001D000B4918FB7F894EC91611126C030953E230D
:1001E0003C938FBF08952730A9F02830C9F0243000
:1001F00049F7809180008F7D03C0809180008F77C8
:1002000080938000DFCF84B58F7784BDDBCF84B54A
:100210008F7DFBCF8091B0008F778093B000D2CFDD
:100220008091B0008F7DF9CF3E2BDACFCF93DF9353
:1002300090E0FC01EC50FF4F249180529F4FFC0155
:1002400084918823D1F090E0880F991FFC01E4533A
:10025000FF4FA591B491FC01EA52FF4FC591D49193
:1002600061110EC09FB7F8948C91E22FE0958E2318
:100270008C932881E223E8839FBFDF91CF9108957B
:100280008FB7F894EC91E22BEC938FBFF6CF1F93CE
:10029000CF93DF93182FEB0161E00E9416012097A6
:1002A00039F460E0812FDF91CF911F910C94CA0047
:1002B000CF3FD10511F461E0F5CFE12FF0E0E85F29
:1002C000FE4FE491E33031F140F4E130B1F0E2303F
:1002D000E1F0C038D1057CF7E4CFE73029F1E83010
:1002E00059F1E430B1F78091800080628093800002
:1002F000D0938B00C0938A0004C084B5806884BD0D
:10030000C7BDDF91CF911F91089584B5806284BDF0
:10031000C8BDF7CF80918000806880938000D09323
:100320008900C0938800EDCF8091B00080688093F1
:10033000B000C093B300E5CF8091B000806280939D
:10034000B000C093B400DDCF2FB7F894609166027F
:100350007091670280916802909169022FBF0895A1
:10036000DC01ED91FC910190F081E02D0994EF9278
:10037000FF920F931F93CF93DF938C017B01D0E00B
:10038000C0E0F701EC0FFD1F6491662361F0D80116
:10039000ED91FC910190F081E02DC8010995892B28
:1003A00011F02196EECFCE01DF91CF911F910F91E9
:1003B000FF90EF900895AF92BF92CF92DF92EF92AD
:1003C000FF920F931F93CF93DF936C017B018B01FF
:1003D000040F151FEB015E01AE18BF08C017D1074F
:1003E00059F06991D601ED91FC910190F081E02DD9
:1003F000C6010995892B79F7C501DF91CF911F912E
:100400000F91FF90EF90DF90CF90BF90AF90089545
:10041000FC01538D448D252F30E0842F90E0821B0A
:10042000930B541710F0CF96089501970895FC018F
:10043000918D828D981761F0A28DAE0FBF2FB11DE7
:100440005D968C91928D9F5F9F73928F90E008953F
:100450008FEF9FEF0895FC01918D828D981731F0F9
:10046000828DE80FF11D858D90E008958FEF9FEF4D
:100470000895FC01918D228D892F90E0805C9F4F23
:10048000821B91098F73992708958AE692E00E9452
:10049000390221E0892B09F420E0822F089580E0C1
:1004A00090E0892B29F00E94450281110C940000F4
:1004B0000895FC01A48DA80FB92FB11DA35ABF4FF9
:1004C0002C91848D90E001968F739927848FA68953
:1004D000B7892C93A089B1898C91837080648C93A7
:1004E000938D848D981306C00288F389E02D808156
:1004F0008F7D80830895EF92FF920F931F93CF9388
:10050000DF93EC0181E0888F9B8D8C8D98131AC04E
:10051000E889F989808185FF15C09FB7F894EE8935
:10052000FF896083E889F989808183708064808392
:100530009FBF81E090E0DF91CF911F910F91FF90DD
:10054000EF900895F62E0B8D10E00F5F1F4F0F7385
:100550001127E02E8C8D8E110CC00FB607FCFACF40
:10056000E889F989808185FFF5CFCE010E94590283
:10057000F1CFEB8DEC0FFD2FF11DE35AFF4FF08211
:100580009FB7F8940B8FEA89FB8980818062CFCF77
:10059000CF93DF93EC01888D8823B9F0AA89BB89BA
:1005A000E889F9898C9185FD03C0808186FD0DC0A5
:1005B0000FB607FCF7CF8C9185FFF2CF808185FFC6
:1005C000EDCFCE010E945902E9CFDF91CF9108957E
:1005D000FC019081462F491B550B9A0179F04D5F24
:1005E0005F4F4730510510F46083089537FD9A013D
:1005F0003595279535952795290F208308950895DA
:1006000008950895089508951F93CF93DF93EC0103
:100610000E94A4019B01AC018F859889009761F02D
:100620006E856623F9F06A817B81DC01ED91FC9196
:100630000680F781E02D099510E08E85181790F45B
:10064000E12FF0E03196EE0FFF1FEC0FFD1F8081D0
:100650009181DC01ED91FC910680F781E02D0995F7
:100660001F5FEBCFDF91CF911F9108950F931F93E1
:10067000CF938C01C0E0D8011E968C91C81790F4DE
:10068000EC2FF0E03196EE0FFF1FE00FF11F80819D
:100690009181DC01ED91FC910480F581E02D0995BB
:1006A000CF5FE9CFCF911F910F9108958AEC91E030
:1006B000089583ED91E00895CF93DF93EB01CA0194
:1006C000B9012FE030E040E050E00E940C0D3170A5
:1006D000822F2F3F310511F008F0809589871A8607
:1006E00080958B87DF91CF9108958BED91E00895F0
:1006F000DC01FB0114968C91149713969C9113972F
:1007000012962C91218792878387089581EE91E03C
:1007100008958F929F92AF92BF92FF920F931F9373
:10072000CF93DF93EC018C849D84AE84BF846E8173
:1007300070E090E080E00E94490EA50194010E94C3
:10074000600F0E94180EF62E6F8170E090E080E03E
:100750000E94490EA50194010E94600F0E94180E8C
:10076000062F688570E090E080E00E94490EA501A8
:1007700094010E94600F0E94180E162F8D8188230D
:1007800019F0F094009510956F2D70E08A810E9409
:100790004701602F70E08B810E944701612F70E05C
:1007A0008C81DF91CF911F910F91FF90BF90AF90FF
:1007B0009F908F900C9447010F931F93CF93DF93DB
:1007C000EC010E94A401088919892A893B89601BD0
:1007D000710B820B930B6E31710581059105C0F091
:1007E0006985CE0106960E94E8026A85CE010796C9
:1007F0000E94E8026B85CE0108960E94E802CE01B5
:100800000E9489030E94A401688B798B8A8B9B8B41
:10081000DF91CF911F910F910895CF93DF93EC015A
:1008200061E08A810E94160161E08B810E941601BD
:1008300061E08C810E941601CE01DF91CF910C9472
:10084000890388EE91E008958FEE91E008958BEF93
:1008500091E00895CF92DF92EF92FF92CF93DF93D2
:10086000EC0190E0C12CD12C76012B819217F8F489
:100870008A818E3008F08E508770806480937C006F
:1008800080917A00806480937A0080917A0086FD5E
:10089000FCCF4091780050917900052E000C660B3A
:1008A000770BC40ED51EE61EF71E9F5FDECF30E02D
:1008B00050E040E0C701B6010E940C0D3D832C833F
:1008C000B90190E080E00E94470E20E030EC4FE755
:1008D00054E40E94A60D6E837F83888799870E94C7
:1008E000A4016A877B878C879D87DF91CF91FF90DA
:1008F000EF90DF90CF90089560E0FC0182810C942E
:10090000160160E070E080E09FE308958AEF90E0D8
:10091000089589E092E0089560E070E080E89FE348
:10092000089582E390E0089582E192E00895FB014A
:1009300001900020E9F73197AF01461B570BDC010E
:10094000ED91FC910280F381E02D0994CF93DF9328
:10095000BC018AE692E00E94B701EC0169E172E015
:100960008AE692E00E9497048C0F9D1FDF91CF9141
:1009700008958F929F92AF92BF92EF92FF920F9342
:100980001F93CF93DF93CDB7DEB7A1970FB6F8943F
:10099000DEBF0FBECDBF7C01FA01CB0119A2223010
:1009A00008F42AE08E010F5D1F4F822E912CB12C8E
:1009B000A12CBF01A50194010E940C0DF901CA01EF
:1009C0006A300CF5605DD8016E938D01232B242BCA
:1009D000252B79F790E080E0109721F0BD01C70149
:1009E0000E949704A1960FB6F894DEBF0FBECDBF4C
:1009F000DF91CF911F910F91FF90EF90BF90AF903B
:100A00009F908F900895695CDECF462F50E070E094
:100A100060E02AE00C94B9042F923F924F925F92CB
:100A20006F927F928F929F92AF92BF92CF92DF92FE
:100A3000EF92FF921F93CF93DF93EC016A017B014A
:100A4000722EAB019601CB01B6010E94CD0F6CE175
:100A500072E0811126C046015701E894B7F82FEFE4
:100A60003FEF4FE75FE7C501B4010E94CD0F811151
:100A70000CC02FEF3FEF4FE75FE7C501B4010E94C5
:100A8000A10D60E272E0181664F02FEF3FEF4FE720
:100A90005FE4C701B6010E945B0F1816B4F464E26C
:100AA00072E0CE01DF91CF911F91FF90EF90DF9028
:100AB000CF90BF90AF909F908F907F906F905F90FE
:100AC0004F903F902F900C9497042FEF3FEF4FE7FC
:100AD0005FECC701B6010E94A10D87FDE0CF20E0C9
:100AE00030E0A901C701B6010E94A10D312C212CD3
:100AF00087FF09C06DE2CE010E94B0011C01F7FA28
:100B0000F094F7F8F09410E060E070E080E09FE38C
:100B1000711641F020E030E040E251E40E94A60D61
:100B20001F5FF6CFA70196010E94350D2B013C01F6
:100B30000E94180E4B015C012AE0BC01A401CE0109
:100B40000E94B9047C01E20CF31C1123C1F1C50120
:100B5000B4010E94470E9B01AC01C301B2010E9487
:100B6000340D4B015C016EE2CE010E94B001E80E33
:100B7000F91E115020F120E030E040E251E4C501BF
:100B8000B4010E94600F2B013C010E94180E4B0122
:100B9000B12CA12C2AE0B501A401CE010E94B90418
:100BA000E80EF91EC501B4010E94470E9B01AC017D
:100BB000C301B2010E94340D4B015C01DACFC701C1
:100BC000DF91CF911F91FF90EF90DF90CF90BF907A
:100BD000AF909F908F907F906F905F904F903F90DD
:100BE0002F9008950F931F93CF93DF93EC0164E34D
:100BF00071E08AE692E00E94B7018C859D85DC0158
:100C0000ED91FC910480F581E02D0995009729F084
:100C1000BC018AE692E00E94970460E28AE692E0D4
:100C20000E94B0016FE271E08AE692E00E94B70193
:100C3000EA81FB81468157816085718523E08AE6E0
:100C400092E00E940C0560E28AE692E00E94B00108
:100C500068E271E08AE692E00E94B701EC81FD81D2
:100C6000468157816085718523E08AE692E00E9483
:100C70000C0560E28AE692E00E94B0016CE171E04E
:100C80008AE692E00E94B7010E94A4010A891B89AA
:100C90002C893D89AB01BC01401B510B620B730BCE
:100CA0002AE08AE692E0DF91CF911F910F910C9498
:100CB000B9040F931F93CF93DF938C01EB0165E889
:100CC00070E0CE010E94B701F8016681CE010E945A
:100CD00005056CE2CE010E94B001F8016781CE01EA
:100CE0000E9405056CE2CE010E94B001F80160850A
:100CF000CE010E94050569E2CE010E94B00160E8C4
:100D000070E0CE010E94B701F801448555856685E3
:100D1000778522E0CE01DF91CF911F910F910C9446
:100D20000C050F931F93CF93DF938C01EB016BE7BF
:100D300070E0CE010E94B701F8014481558170E056
:100D400060E02AE0CE010E94B90464E770E0CE01C1
:100D50000E94B701F801468157816085718523E0C3
:100D6000CE01DF91CF911F910F910C940C050F9341
:100D70001F93CF93DF938C01EB0162E970E0CE010A
:100D80000E94B701D8011E966C91CE010E94050504
:100D9000F80187859089892BD1F06BE870E0CE014E
:100DA0000E94B701D8011F968D919C91DC01ED91B5
:100DB000FC910480F581E02D0995009741F0BC017C
:100DC000CE01DF91CF911F910F910C949704DF9189
:100DD000CF911F910F9108950C946E100C946E108A
:100DE0000C946E100C946E100C946E100C946E108B
:100DF0000C946E100C946E100C946E104F925F92C7
:100E00006F927F92AF92BF92CF92DF92EF92FF925A
:100E10000F931F93CF93DF935B01CA01B9012AE0BF
:100E200030E040E050E00E940C0DCA01B90128E614
:100E300031E040E050E00E940C0D7B0190E080E04A
:100E40000E94470E20E030E040E752E40E94A60DE9
:100E500020E030E040E050E40E948F0E20E030E0DF
:100E600040E85FE30E94340D9B01AC015F7760E0D6
:100E700070E080E89FE30E94340D8B01D82FC92FCA
:100E8000C7016CE370E00E94E40C6230710509F464
:100E90007BC098F46115710509F489C06130710552
:100EA00009F16801ED2EFC2E00E010E0D0E0C0E07A
:100EB000E0E070E090E88FE320C06330710509F452
:100EC0006FC06430710569F7E02F712FCE01C12C1E
:100ED000D12C20E8E22E3FE3F32E00E010E0D0E03A
:100EE000C0E00BC0E02F712FCE01C12CD12CE12C22
:100EF000F12C00E010E0D0E8CFE320E030E0A901E1
:100F00004E2E572E692E782EC301B2010E94350D48
:100F100020E030E04FE753E40E94600F0E94180E7B
:100F2000F501618720E030E0A901B8018D2F9C2FE9
:100F30000E94350D20E030E04FE753E40E94600F3F
:100F40000E94180EF501628720E030E0A901B60189
:100F5000C7010E94350D20E030E04FE753E40E94C6
:100F6000600F0E94180EF5016387DF91CF911F91EA
:100F70000F91FF90EF90DF90CF90BF90AF907F9058
:100F80006F905F904F9008956801ED2EFC2E00E069
:100F900010E0D0E8CFE3E0E070E090E080E0ADCF9B
:100FA000C12CD12C40E8E42E5FE3F52EF4CFC12C08
:100FB000D12CE12CF12C7CCF1F920F920FB60F9207
:100FC00011242F933F938F939F93AF93BF9380915F
:100FD000660290916702A0916802B0916902309117
:100FE000650223E0230F2D3758F50196A11DB11D91
:100FF000209365028093660290936702A093680233
:10100000B09369028091610290916202A0916302A3
:10101000B09164020196A11DB11D8093610290936D
:101020006202A0936302B0936402BF91AF919F915B
:101030008F913F912F910F900FBE0F901F90189599
:1010400026E8230F0296A11DB11DD2CF1F920F9249
:101050000FB60F9211242F933F934F935F936F938B
:101060007F938F939F93AF93BF93EF93FF938AE602
:1010700092E00E945902FF91EF91BF91AF919F9131
:101080008F917F916F915F914F913F912F910F9031
:101090000FBE0F901F9018951F920F920FB60F92D0
:1010A00011242F938F939F93EF93FF93E0917A02F4
:1010B000F0917B028081E0918002F091810282FDBB
:1010C0001BC09081809183028F5F8F732091840277
:1010D000821741F0E0918302F0E0E659FD4F958FD1
:1010E00080938302FF91EF919F918F912F910F90A9
:1010F0000FBE0F901F9018958081F4CFCF93DF9390
:10110000EAE6F2E01382128288EE93E0A0E0B0E01B
:1011100084839583A683B78380E891E0918380835D
:1011200085EC90E09587848784EC90E097878687AC
:1011300080EC90E0918B808B81EC90E0938B828BA4
:1011400082EC90E0958B848B86EC90E0978B868B7D
:10115000118E128E138E148E29E131E0E90148813F
:101160008DE793E0FC01428348E0438315821482BB
:1011700016821782108611861286138614861586AB
:101180006EEB71E071836083E9015981CFE6D3E0B2
:101190005A834B831D821C821E821F8218861986E9
:1011A0001A861B861C861D864EEA51E059834883A9
:1011B000F901448153816281EBE5F3E0A2E9B1E0FA
:1011C000B183A0836283538344831582168217827E
:1011D000108611861286138640E050E060E87FE3B7
:1011E0004487558766877787108A118A128A138AFF
:1011F000A6E5B3E042EA51E011965C934E934FEFBF
:1012000012964C93129713964C93139714964C93F3
:10121000ACE3B3E011963C932E9313969C938E937C
:1012200012971596DC93CE9314971796FC93EE9332
:10123000169719961C921E9218971B961C921E9236
:101240001A971D961C921E921C971E961D921D9217
:101250001D921C92519752961D921D921D921C92A6
:10126000559756961D921D921D921C92599727E0F4
:1012700033E089E2E90119928A95E9F7E901FAA7D1
:10128000E9A788E091E09CA78BA7BEA7ADA718AA05
:101290001FA61AAA19AA1CAA1BAADF91CF9108950A
:1012A000CF93DF93CDB7DEB72A970FB6F894DEBFA2
:1012B0000FBECDBF789484B5826084BD84B5816053
:1012C00084BD85B5826085BD85B5816085BD809111
:1012D0006E00816080936E00109281008091810089
:1012E0008260809381008091810081608093810081
:1012F000809180008160809380008091B100846043
:101300008093B1008091B00081608093B0008091A3
:101310007A00846080937A0080917A008260809362
:101320007A0080917A00816080937A0080917A00BF
:10133000806880937A001092C100E0917A02F09167
:101340007B0282E08083E0917602F0917702108246
:10135000E0917802F09179028FEC80831092820202
:10136000E0917E02F0917F0286E08083E0917C0232
:10137000F0917D02808180618083E0917C02F09118
:101380007D02808188608083E0917C02F0917D0203
:10139000808180688083E0917C02F0917D02808171
:1013A0008F7D8083E0911601E63068F481E08E0F36
:1013B00080931601F0E0EE0FFF1FE65FFE4F8BE516
:1013C00093E09183808306E011E01093180100936D
:1013D00017018AE999E9A9E1BFE380936703909334
:1013E0006803A0936903B0936A0382E091E090934D
:1013F00045038093440320E031E03093470320937A
:10140000460390934903809348030E94A40160938C
:101410004E0370934F0380935003909351031093A6
:1014200039030093380384E091E090933B03809369
:101430003A038DE793E00E947C048FE693E00E94DC
:101440007C048BE593E00E940D0488E091E00E940B
:1014500036039E012D5F3F4F38872F83AE014B5FD0
:101460005F4F5A8749870E94A4014B015C018AE6BD
:1014700092E00E943902892B09F4BCC08AE692E00E
:101480000E9417028A3019F08D3009F0A0C068E27E
:1014900072E087E093E00E94F710892B89F4809135
:1014A000380390913903009731F0E0913203F091C5
:1014B0003303908B878784EB90E00E94A60481C061
:1014C0006EE272E087E093E00E94F710892B79F4D6
:1014D00080913A0390913B03009731F0E091320301
:1014E000F0913303908B878785E990E0E6CF46E063
:1014F00050E066E372E087E093E00E940011892BE0
:1015000009F04BC081E090E08C0F9D1F9F938F935B
:1015100098859F93AF81AF93BA85BF93E985EF9389
:101520002DE332E03F932F9387E093E09F938F93D7
:101530000E940E110FB6F894DEBF0FBECDBF039709
:1015400009F03FC08091360390913703009739F03E
:10155000DC01ED91FC910280F381E02D099585E09D
:1015600090E00E94D20FFC0189819B812D8142EA8B
:1015700051E051834083228393838483F093370324
:10158000E0933603A0913203B09133035096FC935D
:10159000EE931F978AEA90E090CF60E572E087E0D3
:1015A00093E00E94F710892B79F480913403909195
:1015B00035030E94F20569E172E08AE692E00E943A
:1015C000970410922F0353CF80EA90E076CFE091FA
:1015D0002F03E73208F04BCF91E09E0F90932F033B
:1015E000F0E0E95FFC4F8083E92FF0E0E95FFC4F1A
:1015F00010823DCF0E94A4016B017C0180914803C1
:10160000909149030097D1F140914A0350914B03C7
:1016100060914C0370914D0326013701441A550A1D
:10162000660A770ADC01ED91FC910680F781E02DD6
:101630000995B0E0A0E0481659066A067B06F0F06E
:1016400080913E0390913F03DC01ED91FC91068077
:10165000F781E02D09958091400390914103DC01D1
:10166000ED91FC910680F781E02D0995C0924A0327
:10167000D0924B03E0924C03F0924D03E0913E0375
:10168000F0913F03C680D780E084F184209152031B
:10169000309153034091540350915503C701B60153
:1016A0000E94340D9F772AE037ED43EA5CE30E9405
:1016B0005B0F181694F40E94A40160934E0370937C
:1016C0004F038093500390935103C0925203D092E2
:1016D0005303E0925403F092550380914403909198
:1016E0004503892B89F18091460390914703892B0B
:1016F00059F10E94A40100914E0310914F032091D3
:10170000500330915103601B710B820B930BE091DE
:101710003C03F0913D030581168127813085061732
:1017200017072807390708F0BCC08091460390913D
:10173000470320914803309149032817390721F0C6
:1017400090934903809348032090480330904903C5
:101750002114310409F46FC0E0913E03F0913F037E
:10176000C680D780E084F184E0914003F09141038A
:10177000468057806084718400913C0310913D0342
:10178000F8012585368547855089C301B2010E943D
:10179000A10D87FF8BC02DEC3CEC4CE45EE3C70150
:1017A000B6010E94350D6B017C0120E030E040E87D
:1017B0005FE30E945B0F18160CF49BC0D101ED9102
:1017C000FC910084F185E02DC1010995A7019601E6
:1017D0000E94A10D87FF0DC080914803909149039D
:1017E000DC01ED91FC910084F185E02D09956B0100
:1017F0007C01009142031091430320E030E0A901F5
:10180000C701B6010E94A10D87FD7AC020E030E03B
:1018100040E85FE3C701B6010E945B0F181634F47D
:10182000C12CD12C80E8E82E8FE3F82EF801C48675
:10183000D586E686F78688E091E00E9404038091D1
:10184000580290915902A0915A02B0915B02B501E1
:10185000A401481B590B6A0B7B0B809122019091CC
:101860002301A0912401B0912501481759076A0767
:101870007B0708F457C080915C0290E0019663E01A
:1018800070E00E94F80C80935C028823E9F18130BB
:1018900009F493C046E553E05093180140931701B3
:1018A00039C0809144039091450343CFD8015196AC
:1018B0002D913D914D915C915497C301B2010E94CD
:1018C0005B0F18160CF07ACF2AE939E949E95EE393
:1018D000C701B6010E94340D6B017C0120E030E0AD
:1018E000A9010E94A10D87FF69CFC12CD12C7601DF
:1018F00065CFC12CD12C90E8E92E9FE3F92E5ECF65
:10190000C12CD12C760192CF26E031E03093180122
:10191000209317018092580290925902A0925A0285
:10192000B0925B0280915D0290915E02A0915F0295
:10193000B0916002B501A401481B590B6A0B7B0BE7
:1019400080912E0190912F01A0913001B091310131
:10195000481759076A077B0718F18CE393E00E9448
:10196000F20560E28AE692E00E94B0016DEB70E061
:101970008AE692E00E94B70160915C028AE692E0FA
:101980000E94050569E172E08AE692E00E949704F0
:1019900080925D0290925E02A0925F02B09260021D
:1019A00080E090E0892B09F45ECD0E9445028823F7
:1019B00009F459CD0E94000056CD84E091E0909347
:1019C000180180931701A6CFAA1BBB1B51E107C0CA
:1019D000AA1FBB1FA617B70710F0A61BB70B881FBF
:1019E000991F5A95A9F780959095BC01CD0108954E
:1019F00097FB072E16F4009407D077FD09D00E94BC
:101A0000E40C07FC05D03EF4909581959F4F089516
:101A1000709561957F4F0895A1E21A2EAA1BBB1BFA
:101A2000FD010DC0AA1FBB1FEE1FFF1FA217B307AA
:101A3000E407F50720F0A21BB30BE40BF50B661FC0
:101A4000771F881F991F1A9469F760957095809584
:101A500090959B01AC01BD01CF010895EE0FFF1FD2
:101A60000590F491E02D09945058BB27AA270E94B5
:101A70004C0D0C94210F0E94130F38F00E941A0F86
:101A800020F039F49F3F19F426F40C94100F0EF453
:101A9000E095E7FB0C94FC0EE92F0E94320F58F3FF
:101AA000BA17620773078407950720F079F4A6F543
:101AB0000C94540F0EF4E0950B2EBA2FA02D0B01B1
:101AC000B90190010C01CA01A0011124FF27591B83
:101AD00099F0593F50F4503E68F11A16F040A22F89
:101AE000232F342F4427585FF3CF469537952795FA
:101AF000A795F0405395C9F77EF41F16BA0B620BF9
:101B0000730B840BBAF09150A1F0FF0FBB1F661F3F
:101B1000771F881FC2F70EC0BA0F621F731F841F82
:101B200048F4879577956795B795F7959E3F08F0A8
:101B3000B0CF9395880F08F09927EE0F979587956A
:101B400008950E94D80E08F481E008950E94BA0D0D
:101B50000C94210F0E941A0F58F00E94130F40F0AE
:101B600029F45F3F29F00C94FC0E51110C94550F91
:101B70000C94100F0E94320F68F39923B1F3552390
:101B800091F3951B550BBB27AA2762177307840790
:101B900038F09F5F5F4F220F331F441FAA1FA9F326
:101BA00035D00E2E3AF0E0E832D091505040E69514
:101BB000001CCAF72BD0FE2F29D0660F771F881F75
:101BC000BB1F261737074807AB07B0E809F0BB0B68
:101BD000802DBF01FF2793585F4F3AF09E3F51057C
:101BE00078F00C94FC0E0C94550F5F3FE4F3983E94
:101BF000D4F3869577956795B795F7959F5FC9F765
:101C0000880F911D9695879597F90895E1E0660FE5
:101C1000771F881FBB1F621773078407BA0720F05E
:101C2000621B730B840BBA0BEE1F88F7E0950895C7
:101C30000E943A0F88F09F5798F0B92F9927B75113
:101C4000B0F0E1F0660F771F881F991F1AF0BA9560
:101C5000C9F714C0B13091F00E94540FB1E008955B
:101C60000C94540F672F782F8827B85F39F0B93F4D
:101C7000CCF3869577956795B395D9F73EF4909513
:101C80008095709561957F4F8F4F9F4F0895E89491
:101C900009C097FB3EF490958095709561957F4FB4
:101CA0008F4F9F4F9923A9F0F92F96E9BB27939562
:101CB000F695879577956795B795F111F8CFFAF472
:101CC000BB0F11F460FF1BC06F5F7F4F8F4F9F4FA3
:101CD00016C0882311F096E911C0772321F09EE801
:101CE000872F762F05C0662371F096E8862F70E067
:101CF00060E02AF09A95660F771F881FDAF7880F41
:101D00009695879597F908950E94130F20F019F082
:101D10000E941A0F50F40C94100F0C94550FE92FD9
:101D20000E94320F88F35523B1F3E7FB6217730764
:101D300084079507A8F189F3E92FFF2788232AF064
:101D40003197660F771F881FDAF7952F55274423A1
:101D500032F091505040220F331F441FD2F7BB275F
:101D6000E91BF50B621B730B840BB109B1F222F472
:101D7000620F731F841FB11D31972AF0660F771F02
:101D8000881FBB1FEFCF9150504062F041F0882375
:101D900032F0660F771F881F91505040C1F793951E
:101DA0000C94020F8695779567959F5FD9F7F7CFCB
:101DB000990F0008550FAA0BE0E8FEEF161617065C
:101DC000E807F907C0F012161306E407F50798F0C4
:101DD000621B730B840B950B39F40A2661F0232BDD
:101DE000242B252B21F408950A2609F4A140A69559
:101DF0008FEF811D811D089597F99F6780E870E03E
:101E000060E008959F3F31F0915020F487957795D9
:101E10006795B795880F911D9695879597F90895C1
:101E20009FEF80EC089500240A94161617061806F2
:101E30000906089500240A941216130614060506CE
:101E40000895092E0394000C11F4882352F0BB0F5F
:101E500040F4BF2B11F460FF04C06F5F7F4F8F4FC2
:101E60009F4F089557FD9058440F551F59F05F3FFD
:101E700071F04795880F97FB991F61F09F3F79F0AC
:101E800087950895121613061406551FF2CF46952E
:101E9000F1DF08C0161617061806991FF1CF8695B0
:101EA0007105610508940895E894BB276627772794
:101EB000CB0197F908950E94D80E08F48FEF08958A
:101EC0000E94730F0C94210F0E94130F38F00E9490
:101ED0001A0F20F0952311F00C94FC0E0C94100FA7
:101EE00011240C94550F0E94320F70F3959FC1F38B
:101EF000950F50E0551F629FF001729FBB27F00DB8
:101F0000B11D639FAA27F00DB11DAA1F649F66270C
:101F1000B00DA11D661F829F2227B00DA11D621F5B
:101F2000739FB00DA11D621F839FA00D611D221F15
:101F3000749F3327A00D611D231F849F600D211DF9
:101F4000822F762F6A2F11249F5750409AF0F1F07C
:101F500088234AF0EE0FFF1FBB1F661F771F881FE5
:101F600091505040A9F79E3F510580F00C94FC0E13
:101F70000C94550F5F3FE4F3983ED4F38695779524
:101F80006795B795F795E7959F5FC1F7FE2B880F8B
:101F9000911D9695879597F908950E94D80E880B04
:101FA000990B08950F931F93CF93DF938230910580
:101FB00010F482E090E0E0918D03F0918E0330E028
:101FC00020E0B0E0A0E0309799F42115310509F444
:101FD0004AC0281B390B24303105D8F58A819B81F2
:101FE0006115710589F1FB0193838283FE0111C0A4
:101FF000408151810281138148175907E0F0481749
:10200000590799F4109761F012960C931297139652
:102010001C933296CF01DF91CF911F910F910895BC
:1020200000938D0310938E03F4CF2115310551F0E9
:102030004217530738F0A901DB019A01BD01DF0106
:10204000F801C1CFEF01F9CF90938E0380938D03F8
:10205000CDCFFE01E20FF31F8193919322503109FE
:1020600039832883D7CF20918B0330918C03232B86
:1020700041F4209134013091350130938C03209349
:102080008B0320913201309133012115310541F448
:102090002DB73EB74091360150913701241B350BC7
:1020A000E0918B03F0918C03E217F307A0F42E1B51
:1020B0003F0B2817390778F0AC014E5F5F4F2417AC
:1020C000350748F04E0F5F1F50938C0340938B03EE
:1020D000819391939FCFF0E0E0E09CCFCF93DF938B
:1020E0000097E9F0FC01329713821282A0918D03D0
:1020F000B0918E03ED0130E020E01097A1F4208133
:102100003181820F931F20918B0330918C0328170C
:10211000390709F061C0F0938C03E0938B03DF91E2
:10212000CF910895EA01CE17DF07E8F54A815B8178
:102130009E0141155105B1F7E901FB83EA834991FD
:102140005991C40FD51FEC17FD0761F4808191816F
:102150000296840F951FE901998388838281938178
:102160009B838A83F0E0E0E012968D919C91139717
:102170000097B9F52D913C911197CD010296820FF0
:10218000931F20918B0330918C032817390739F660
:10219000309751F510928E0310928D03B0938C03FB
:1021A000A0938B03BCCFD383C28340815181840F22
:1021B000951FC817D90761F44E5F5F4F88819981D9
:1021C000480F591F518340838A819B819383828367
:1021D0002115310509F0B0CFF0938E03E0938D0304
:1021E0009ECFFD01DC01C0CF13821282D7CFFB014D
:1021F000DC018D91019080190110D9F3990B08959C
:10220000FB01DC014150504030F08D91019080196C
:1022100019F40020B9F7881B990B0895AEE0B0E0DF
:10222000E4E1F1E10C94321485E08C838B899C8984
:102230009A838983AE01495E5F4F6D897E89CE01A5
:1022400001960E94B2122E96E2E00C944E1420FDEC
:1022500009C0FC0123FD05C022FF02C07383628315
:1022600051834083089544FD17C046FD1DC0DB0126
:10227000FC01AA0FBB1FEE1FFF1F1094D1F76A0FBE
:102280007B1F8E1F9F1F660F771F881F991F620F6E
:10229000711D811D911D089533E0660F771F881F02
:1022A000991F3150D1F7F3CF34E0F7CF0F931F933D
:1022B000CF93DF938C01C8010E94CB13EC0197FDF3
:1022C00008C00E94B713892BB1F7B801CE010E9454
:1022D0000714CE01DF91CF911F910F9108958F9236
:1022E0009F92AF92BF92EF92FF920F931F93CF9363
:1022F000DF938C01D62F7A01B22E0E94CB139C0162
:1023000033272B32310529F02D323105A9F4689499
:10231000B7F8D15061F480E0DF91CF911F910F9118
:10232000FF90EF90BF90AF909F908F900895C8015D
:102330000E94CB1397FDEFCFCB2DCD7F2B2D20739C
:10234000F9F48033E9F4AA24AA94AD0E89F0C80107
:102350000E94CB1397FD0CC0282F2F7D283561F4E8
:10236000C264D25029F0C8010E94CB1397FF08C065
:10237000812C912C54011BC0B6FE2BC0C260DA2DFB
:10238000812C912C540120ED280F283028F1C4FD18
:1023900009C02A3008F1C6FF05C02F7D3FEE320F7D
:1023A0003630C8F0B8010E940714C1FFB4CFC7FF90
:1023B00008C0B094A09490948094811C911CA11C9E
:1023C000B11C2C2FB501A401C7010E94271181E087
:1023D000A3CFC261D4CF27504C2FC501B4010E94B6
:1023E00033114B015C01C260D15009F3C8010E9456
:1023F000CB1397FFC8CFD9CFA0E2B0E0E2E0F2E183
:102400000C9427145C01962E7A01CE0101966C0182
:1024100080E2F60111928A95E9F7F501B38189010D
:1024200030E020E0712C812CA0E041E050E0F80188
:10243000B3FD8591B3FF8191982F8F01811107C062
:1024400010E000E0C801A096EDE00C9443148E3536
:1024500019F42115310541F1A21713064CF48D35FD
:1024600049F18D3229F4811006C0882483941DC05F
:10247000882009F464C0E92FE695E695E695EC0D11
:10248000FD2DF11D892F8770BA0101C0660F8A9555
:10249000EAF78081682B6083791651F0971510F464
:1024A0009F5FE9CF9150E7CFA1E02F5F3F4FBFCFB4
:1024B000812CFBCF882019F08E8180628E83AA2325
:1024C00059F0F6019E012F5D3F4F808180958083FA
:1024D0003196E217F307C9F788248394C5010E9457
:1024E000CB1397FD16C0E82FE695E695E695EC0D23
:1024F000FD2DF11D208130E0AC014770552702C051
:10250000359527954A95E2F720FD06C0B5010E9452
:102510000714882069F094CFE114F10429F0F70141
:102520008083C70101967C019A94812C9110D6CFAB
:10253000E114F10409F486CFF701108283CFE82F6C
:10254000E695E695E695EC0DFD2DF11D982F97701B
:10255000BA0101C0660F9A95EAF79081692B6083F2
:10256000782EA3CFB0E0A0E0E8EBF2E10C942514C4
:102570006C01EB015A01FC0117821682512CF60105
:10258000E380FE01E3FC8591E3FE8191182FEF01CA
:102590008823E9F090E00E94B713892B21F0C6014F
:1025A0000E945611ECCF153241F4FE01E3FC159167
:1025B000E3FE1191EF01153269F4C6010E94CB13BD
:1025C00097FD8EC01817D9F2B6010E940714852D09
:1025D00090E08AC000E01A3231F4E3FC1591E3FE8A
:1025E0001191EF0101E0F12C20ED210F2A3048F18B
:1025F00001FF37C0FF2059F31836B1F11C3609F43A
:102600003DC0112321F3612F70E088E690E00E9425
:10261000C013892BE1F2912C812C00FD06C0F5013D
:1026200080809180C50102965C011E3679F5F60125
:102630004681578170E060E0202FC4010E9427117D
:102640009ECF02606F2D70E090E080E040E20E943B
:102650003311F62EFE01E3FC1591E3FE1191EF011B
:10266000C3CFFF24FA94C8CFFE01E3FC1591E3FE2B
:102670001191EF01183609F0C4CF08600460FE0123
:10268000E3FC1591E3FE1191EF01BBCF1336C1F4CA
:1026900001FD02C0FF24F394C6010E94CB1397FDF5
:1026A0001FC08114910429F0F4018083C4010196B4
:1026B0004C01FA94F110F0CF00FD61CF53945FCF3D
:1026C0001B35B9F49E01A4016F2DC6010E94FC11B7
:1026D000EC01892B89F7F6018381807309F477CFA8
:1026E0008FEF9FEF511073CFCDB7DEB7EFE00C94B3
:1026F0004114C6010E94561197FDF2CF1F36A9F171
:1027000030F4143641F0193639F0006405C013373F
:10271000B9F01537D1F70062202FA4016F2DC60143
:102720000E946F118111C8CFD6CF8114910429F076
:10273000F4016082C40101964C01FA94FF2071F00B
:10274000C6010E94CB133C0197FD08C00E94B7133D
:10275000892B59F3B601C3010E9407148114910417
:1027600009F4AACFF4011082A7CF0061D5CF91114F
:102770000C941F14803219F089508550C8F70895C1
:10278000FC010590061621F00020D9F7C00108953C
:102790003197CF010895CF93DF93EC012B8120FF78
:1027A0001AC026FF0CC02F7B2B838E819F81019640
:1027B0009F838E838A8190E0DF91CF91089522FFDD
:1027C00018C0E881F9818081082E000C990B0097D0
:1027D00029F420622B838FEF9FEFEECF3196F983A0
:1027E000E8832E813F812F5F3F4F3F832E839927C0
:1027F000E3CFEA85FB85099597FFF3CF2B810196FF
:1028000021F080E2822B8B83E6CF80E1FBCFFB01BE
:10281000238120FF11C026FD0FC08F3F980771F064
:1028200082832F7D206423832681378121503109C3
:1028300037832683992708958FEF9FEF089599276F
:10284000882708952F923F924F925F926F927F92C6
:102850008F929F92AF92BF92CF92DF92EF92FF92B0
:102860000F931F93CF93DF93CDB7DEB7CA1BDB0B5C
:102870000FB6F894DEBF0FBECDBF09942A88398801
:1028800048885F846E847D848C849B84AA84B98408
:10289000C884DF80EE80FD800C811B81AA81B98114
:1028A000CE0FD11D0FB6F894DEBF0FBECDBFED0128
:0628B0000895F894FFCF2B
:1028B6003C014A015801640170010000000000005B
:1028C6000000000000000000000E0F090A0B983AF5
:1028D6000000204E00000000803E0000403FB80B84
:1028E600000000008F03800000000000FF02F006D9
:1028F60089048604810400000000FF02EE069404A9
:1029060091048C0400000000FF02FA065903FE063B
:1029160000000000FF02F80675035C0300000000DB
:102926000303FC0636030403B70656030000000043
:102936007B02DB010802C802390217022B020000E3
:1029460000000103F4060D04DC035906210400000F
:1029560000000203F6068603780300000000000369
:10296600EC067C042A0491062404000000000003FF
:10297600F2067C042A04910627044C656447726FAC
:102986007570005261696E626F770050756C736581
:1029960000537461746963005247424C6564005089
:1029A600686F746F53656E736F7200506F74656EE7
:1029B60074696F6D65746572004C6F77506F7765DB
:1029C60072004E6F726D616C000D0A006E616E00D2
:1029D600696E66006F76660070756C73650072616D
:1029E600696E626F770073746174696300737461F2
:1029F600746963202568752025687520256875002B
:082A0600737461747573000024
:00000001FF
