:100000000C949A000C94C2000C94C2000C94C20090
:100010000C94C2000C94C2000C94C2000C94C20058
:100020000C94C2000C94C2000C94C2000C94C20048
:100030000C94C2000C94C2000C94C2000C94C20038
:100040000C9439060C94C2000C94A9060C948306F7
:100050000C94C2000C94C2000C94C2000C94C20018
:100060000C94C2000C94C200206E6F726D3D007241
:1000700061773D00206C696768743D007261773D6F
:1000800000292062723D007267623D280053797337
:1000900074656D20696E6974204F4B202864656D0E
:1000A0006F5F6D61696E29003A20005D20005B0082
:1000B00053747261746567793D005377697463683E
:1000C000656420746F204E6F726D616C00537769A8
:1000D000746368656420746F204C6F77506F776528
:1000E000720000000000240027002A000000000029
:1000F000250028002B000404040404040404020264
:100100000202020203030303030301020408102096
:1001100040800102040810200102040810200000A1
:1001200000080002010000030407000000000000B6
:100130000000DB0611241FBECFEFD8E0DEBFCDBF2D
:1001400011E0A0E0B1E0E6E7FAE102C005900D920F
:10015000AA3AB107D9F722E0AAEAB1E001C01D929C
:10016000AB39B207E1F710E0CAE9D0E004C021974B
:10017000FE010E94D209C939D107C9F70E94480778
:100180000C94390D0C94000090E0FC01E25EFE4FEF
:100190002491FC01E65FFE4F3491FC01EA50FF4FD1
:1001A000E491EE23C9F0222339F0233001F1A8F4C1
:1001B000213019F1223029F1F0E0EE0FFF1FE45158
:1001C000FF4FA591B4918FB7F894EC91611126C0BF
:1001D00030953E233C938FBF08952730A9F02830F7
:1001E000C9F0243049F7809180008F7D03C0809151
:1001F00080008F7780938000DFCF84B58F7784BDB8
:10020000DBCF84B58F7DFBCF8091B0008F7780935B
:10021000B000D2CF8091B0008F7DF9CF3E2BDACFE6
:10022000CF93DF9390E0FC01E65FFE4F24918A506C
:100230009F4FFC0184918823D1F090E0880F991F93
:10024000FC01EE51FF4FA591B491FC01E451FF4F29
:10025000C591D49161110EC09FB7F8948C91E22F93
:10026000E0958E238C932881E223E8839FBFDF9162
:10027000CF9108958FB7F894EC91E22BEC938FBF58
:10028000F6CF1F93CF93DF93182FEB0161E00E940D
:100290001001209739F460E0812FDF91CF911F91F9
:1002A0000C94C400CF3FD10511F461E0F5CFE12FEC
:1002B000F0E0E25EFE4FE491E33031F140F4E130F2
:1002C000B1F0E230E1F0C038D1057CF7E4CFE7309F
:1002D00029F1E83059F1E430B1F780918000806273
:1002E00080938000D0938B00C0938A0004C084B5B3
:1002F000806884BDC7BDDF91CF911F91089584B5FB
:10030000806284BDC8BDF7CF8091800080688093F3
:100310008000D0938900C0938800EDCF8091B00019
:1003200080688093B000C093B300E5CF8091B000A7
:1003300080628093B000C093B400DDCFDC01ED910A
:10034000FC910190F081E02D0994EF92FF920F93C0
:100350001F93CF93DF938C017B01D0E0C0E0F701C6
:10036000EC0FFD1F6491662361F0D801ED91FC91C3
:100370000190F081E02DC8010995892B11F021969B
:10038000EECFCE01DF91CF911F910F91FF90EF90B3
:100390000895AF92BF92CF92DF92EF92FF920F93A8
:1003A0001F93CF93DF936C017B018B01040F151F0B
:1003B000EB015E01AE18BF08C017D10759F0699173
:1003C000D601ED91FC910190F081E02DC6010995D7
:1003D000892B79F7C501DF91CF911F910F91FF9084
:1003E000EF90DF90CF90BF90AF900895FC01538DB8
:1003F000448D252F30E0842F90E0821B930B5417FF
:1004000010F0CF96089501970895FC01918D828D8B
:10041000981761F0A28DAE0FBF2FB11D5D968C9124
:10042000928D9F5F9F73928F90E008958FEF9FEF63
:100430000895FC01918D828D981731F0828DE80F1F
:10044000F11D858D90E008958FEF9FEF0895FC01D9
:10045000918D228D892F90E0805C9F4F821B9109A6
:100460008F739927089581ED91E00E94270221E082
:10047000892B09F420E0822F089580E090E0892BF9
:1004800029F00E94330281110C9400000895FC01B0
:10049000A48DA80FB92FB11DA35ABF4F2C91848DE5
:1004A00090E001968F739927848FA689B7892C9342
:1004B000A089B1898C91837080648C93938D848D95
:1004C000981306C00288F389E02D80818F7D808398
:1004D0000895EF92FF920F931F93CF93DF93EC0158
:1004E00081E0888F9B8D8C8D98131AC0E889F989DB
:1004F000808185FF15C09FB7F894EE89FF896083DE
:10050000E889F98980818370806480839FBF81E05E
:1005100090E0DF91CF911F910F91FF90EF900895A0
:10052000F62E0B8D10E00F5F1F4F0F731127E02E7B
:100530008C8D8E110CC00FB607FCFACFE889F989B3
:10054000808185FFF5CFCE010E944702F1CFEB8D70
:10055000EC0FFD2FF11DE35AFF4FF0829FB7F89487
:100560000B8FEA89FB8980818062CFCFCF93DF93A5
:10057000EC01888D8823B9F0AA89BB89E889F989BB
:100580008C9185FD03C0808186FD0DC00FB607FCF0
:10059000F7CF8C9185FFF2CF808185FFEDCFCE0123
:1005A0000E944702E9CFDF91CF9108950895089501
:1005B00008956DEC7CEC8CEC9EE3089588EC90E063
:1005C00008958AE691E0089560E070E080E89FE396
:1005D000089582E390E0089583E791E008958F9273
:1005E0009F92AF92BF92FF920F931F93CF93DF938F
:1005F000EC018C849D84AE84BF846E8170E090E0B9
:1006000080E00E94ED0AA50194010E94A20B0E94C5
:10061000BC0AF62E6F8170E090E080E00E94ED0A47
:10062000A50194010E94A20B0E94BC0A062F6885B6
:1006300070E090E080E00E94ED0AA50194010E9424
:10064000A20B0E94BC0A162F8D81882319F0F0940A
:10065000009510956F2D70E08A810E944101602FF6
:1006600070E08B810E944101612F70E08C81DF91ED
:10067000CF911F910F91FF90BF90AF909F908F905F
:100680000C944101CF93DF93EC018889882309F40E
:1006900056C039852E81432F421B550BCA01009746
:1006A00009F068C02E833A852F81432F421B550BDA
:1006B000CA01009769F04D5F5F4F4730510508F45C
:1006C00068C097FDCA019595879595958795280FE0
:1006D0002F833B852885432F421B550BCA0100976A
:1006E00069F04D5F5F4F4730510508F454C097FDE6
:1006F000CA019595879595958795280F2887CE01EE
:100700000E94EF029E818985981309C09F818A8586
:10071000981305C098858B85981301C0188A2FB748
:10072000F8948091CD019091CE01A091CF01B0912C
:10073000D0012FBF898B9A8BAB8BBC8B18C02FB786
:10074000F8948091CD019091CE01A091CF01B0910C
:10075000D0012FBF49895A896B897C89841B950BED
:10076000A60BB70B4F97A105B10508F092CFDF910B
:10077000CF9108954D5F5F4F4730510540F097FD91
:10078000CA019595879595958795280F8BCF232F2F
:1007900089CF232F9DCF232FB1CF8AE791E00895F2
:1007A000CF93DF93EC0161E08A810E94100161E048
:1007B0008B810E94100161E08C810E941001CE01AA
:1007C000DF91CF910C94EF0281E891E008958DE8DC
:1007D00091E00895CF92DF92EF92FF92CF93DF9353
:1007E000EC0190E0C12CD12C76012B819217F8F40A
:1007F0008A818E3008F08E508770806480937C00F0
:1008000080917A00806480937A0080917A0086FDDE
:10081000FCCF4091780050917900052E000C660BBA
:10082000770BC40ED51EE61EF71E9F5FDECF30E0AD
:1008300050E040E0C701B6010E94B0093D832C831F
:100840002FB7F8948091CD019091CE01A091CF0166
:10085000B091D0012FBF8E839F83A887B987DF9186
:10086000CF91FF90EF90DF90CF90089560E0FC0172
:1008700082810C941001FB0101900020E9F731976F
:10088000AF01461B570BDC01ED91FC910280F38117
:10089000E02D0994CF93DF93BC0181ED91E00E949C
:1008A000A501EC016BE971E081ED91E00E943B0450
:1008B0008C0F9D1FDF91CF9108958F929F92AF92E1
:1008C000BF92EF92FF920F931F93CF93DF93CDB719
:1008D000DEB7A1970FB6F894DEBF0FBECDBF7C0187
:1008E000FA01CB0119A2223008F42AE08E010F5D33
:1008F0001F4F822E912CB12CA12CBF01A501940178
:100900000E94B009F901CA016A300CF5605DD80196
:100910006E938D01232B242B252B79F790E080E01B
:10092000109721F0BD01C7010E943B04A1960FB6AC
:10093000F894DEBF0FBECDBFDF91CF911F910F9115
:10094000FF90EF90BF90AF909F908F900895695C5B
:10095000DECF2F923F924F925F926F927F928F9253
:100960009F92AF92BF92CF92DF92EF92FF921F932E
:10097000CF93DF93EC016A017B01722EAB019601EC
:10098000CB01B6010E940F0C6EE971E0811126C007
:1009900046015701E894B7F82FEF3FEF4FE75FE7C5
:1009A000C501B4010E940F0C81110CC02FEF3FEF65
:1009B0004FE75FE7C501B4010E94450A62EA71E0B2
:1009C000181664F02FEF3FEF4FE75FE4C701B60161
:1009D0000E949D0B1816B4F466EA71E0CE01DF9117
:1009E000CF911F91FF90EF90DF90CF90BF90AF908D
:1009F0009F908F907F906F905F904F903F902F903F
:100A00000C943B042FEF3FEF4FE75FECC701B601BB
:100A10000E94450A87FDE0CF20E030E0A901C70130
:100A2000B6010E94450A312C212C87FF09C06DE2D6
:100A3000CE010E949E011C01F7FAF094F7F8F094A1
:100A400010E060E070E080E09FE3711641F020E08C
:100A500030E040E251E40E944A0A1F5FF6CFA7014E
:100A600096010E94D9092B013C010E94BC0A4B014E
:100A70005C012AE0BC01A401CE010E945D047C015E
:100A8000E20CF31C1123C1F1C501B4010E94EB0A71
:100A90009B01AC01C301B2010E94D8094B015C016A
:100AA0006EE2CE010E949E01E80EF91E115020F167
:100AB00020E030E040E251E4C501B4010E94A20B05
:100AC0002B013C010E94BC0A4B01B12CA12C2AE055
:100AD000B501A401CE010E945D04E80EF91EC50116
:100AE000B4010E94EB0A9B01AC01C301B2010E9458
:100AF000D8094B015C01DACFC701DF91CF911F917B
:100B0000FF90EF90DF90CF90BF90AF909F908F902D
:100B10007F906F905F904F903F902F9008950F932C
:100B20001F93CF93DF938C01EB0167E870E0CE0158
:100B30000E94A501F801468150E070E060E02AE0E3
:100B4000CE010E945D046CE2CE010E949E01F8017C
:100B5000478150E070E060E02AE0CE010E945D0431
:100B60006CE2CE010E949E01F801408550E070E0E9
:100B700060E02AE0CE010E945D0461E870E0CE01F1
:100B80000E94A501F801448555856685778522E098
:100B9000CE01DF91CF911F910F910C94A9040F9377
:100BA0001F93CF93DF938C01EB016CE770E0CE01D4
:100BB0000E94A501F8014481558170E060E02AE0BF
:100BC000CE010E945D0464E770E0CE010E94A501A1
:100BD000F8016481758190E080E00E94EB0A20E0DA
:100BE00030EC4FE754E40E944A0AAB01BC0123E019
:100BF000CE01DF91CF911F910F910C94A9040F9317
:100C00001F93CF93DF938C01EB016FE670E0CE0171
:100C10000E94A501F8014481558170E060E02AE05E
:100C2000CE010E945D0468E670E0CE010E94A5013D
:100C3000F8016481758190E080E00E94EB0A20E079
:100C400030EC4FE754E40E944A0AAB01BC0123E0B8
:100C5000CE01DF91CF911F910F910C94A9040C94B8
:100C6000B00C0C94B00C0C94B00C0C94B00C0C9414
:100C7000B00C1F920F920FB60F9211242F933F9337
:100C80008F939F93AF93BF938091CD019091CE01AD
:100C9000A091CF01B091D0013091CC0123E0230F7E
:100CA0002D3758F50196A11DB11D2093CC018093DD
:100CB000CD019093CE01A093CF01B093D00180914C
:100CC000C8019091C901A091CA01B091CB010196D0
:100CD000A11DB11D8093C8019093C901A093CA01C1
:100CE000B093CB01BF91AF919F918F913F912F9185
:100CF0000F900FBE0F901F90189526E8230F0296B5
:100D0000A11DB11DD2CF1F920F920FB60F921124C9
:100D10002F933F934F935F936F937F938F939F9303
:100D2000AF93BF93EF93FF9381ED91E00E94470251
:100D3000FF91EF91BF91AF919F918F917F916F91B3
:100D40005F914F913F912F910F900FBE0F901F9089
:100D500018951F920F920FB60F9211242F938F9315
:100D60009F93EF93FF93E091E101F091E201808185
:100D7000E091E701F091E80182FD1BC09081809134
:100D8000EA018F5F8F732091EB01821741F0E091B0
:100D9000EA01F0E0EF52FE4F958F8093EA01FF9158
:100DA000EF919F918F912F910F900FBE0F901F90F9
:100DB00018958081F4CFE1EDF1E01382128288EE84
:100DC00093E0A0E0B0E084839583A683B7838CE2B0
:100DD00091E09183808385EC90E09587848784EC13
:100DE00090E09787868780EC90E0918B808B81ECF8
:100DF00090E0938B828B82EC90E0958B848B86ECD9
:100E000090E0978B868B118E128E138E148EEDE8E8
:100E1000F2E08EE0828388E083831582148216825A
:100E20001782108611862EE531E031832083E3E8B6
:100E3000F2E09FE0928383831582148216821782E8
:100E4000108611868EE491E091838083EEE6F2E0D5
:100E50008EE391E09183808389E082838AE08383BB
:100E60008BE0848315821682178210861186128683
:100E7000138680E090E0A0E8BFE384879587A6878B
:100E8000B78781E0808B118A128A138A148A0895A9
:100E9000789484B5826084BD84B5816084BD85B555
:100EA000826085BD85B5816085BD80916E00816061
:100EB00080936E0010928100809181008260809307
:100EC0008100809181008160809381008091800009
:100ED0008160809380008091B10084608093B10034
:100EE0008091B00081608093B00080917A0084602E
:100EF00080937A0080917A00826080937A0080915A
:100F00007A00816080937A0080917A008068809373
:100F10007A001092C100E091E101F091E20182E0DB
:100F20008083E091DD01F091DE011082E091DF012C
:100F3000F091E00180E180831092E901E091E50108
:100F4000F091E60186E08083E091E301F091E40115
:100F5000808180618083E091E301F091E4018081F0
:100F600088608083E091E301F091E40180818068F2
:100F70008083E091E301F091E40180818F7D8083A3
:100F80008091BE019091BF018A30910580F49C014F
:100F90002F5F3F4F3093BF012093BE01880F991FF1
:100FA000FC01E655FE4F8DE892E0918380838091AD
:100FB000BE019091BF018A30910580F49C012F5FA2
:100FC0003F4F3093BF012093BE01880F991FFC0152
:100FD000E655FE4F83E892E0918380838091BE01C5
:100FE0009091BF018A30910580F49C012F5F3F4FA3
:100FF0003093BF012093BE01880F991FFC01E65575
:10100000FE4F8EE692E0918380830AEA11E0D0E001
:10101000C0E08091BE019091BF01C817D90768F464
:10102000D8018D919D918D01DC01ED91FC910480A1
:10103000F581E02D09952196ECCF8DE890E00E9496
:101040004A0480E0482E80E0582E90E0692E91E01E
:10105000792E02E011E08FB7F894C090CD01D090C6
:10106000CE01E090CF01F090D0018FBF81ED91E0F3
:101070000E942702892B79F081ED91E00E94050200
:101080008C3609F046C110930501009304018DECE4
:1010900090E00E944A048091C4019091C501A09102
:1010A000C601B091C70146015701881A990AAA0AD8
:1010B000BB0A8091040190910501DC01ED91FC9146
:1010C0000680F781E02D0995B0E0A0E0881699062A
:1010D000AA06BB0608F499C08DE892E00E94EA03D4
:1010E00083E892E00E94EA03C092C401D092C50155
:1010F000E092C601F092C701609191027091920254
:1011000090E080E00E94EB0A20E030EC4FE754E4EE
:101110000E944A0A1B014C01809104019091050133
:10112000DC01ED91FC910084F185E02D09955B01D6
:10113000D82FC92F9B01482F592FB101C4010E94FC
:101140009D0B18160CF0EFC020E030E0A901B501AE
:101150008D2F9C2F0E94450A87FDE9C020E030E0DA
:1011600040E85FE3B5018D2F9C2F0E949D0B181660
:1011700024F4A12CB12CD0E8CFE3C501AD2FBC2FB6
:1011800080937A0290937B02A0937C02B0937D02BD
:10119000B1E0B0937E02609187027091880290E086
:1011A00080E00E94EB0A20E030EC4FE754E40E941C
:1011B0004A0A4B015C01AC019B0160E070E080E8F1
:1011C0009FE30E94D80920E030E04FE753E40E94FB
:1011D000A20B0E94BC0A6093770220E030E040E05E
:1011E00053E4C501B4010E94A20B0E94BC0A6093A3
:1011F000780220E030E04FE753E4C501B4010E94DB
:10120000A20B0E94BC0A609379028EE692E00E94D3
:1012100042038091C0019091C101A091C201B0919F
:10122000C301A7019601281B390B4A0B5B0BDA019E
:10123000C901893E9340A105B10508F485C060EB62
:1012400070E081ED91E00E94A501809104019091F0
:101250000501DC01ED91FC910480F581E02D0995FB
:10126000009729F0BC0181ED91E00E943B0460E20F
:1012700081ED91E00E949E01CAEAD1E0812C912C7F
:1012800054018091BE019091BF018816990608F023
:1012900053C06EEA70E081ED91E00E94A5012AE062
:1012A000B501A40181ED91E00E945D046BEA70E05C
:1012B00081ED91E00E94A50188819981DC01ED9189
:1012C000FC910284F385E02D0995009729F0BC017B
:1012D00081ED91E00E943B0468EA70E081ED91E0CD
:1012E0000E94A50189919991DC01ED91FC91008406
:1012F000F185E02D61ED71E009956BE971E081ED1B
:1013000091E00E943B04BFEF8B1A9B0AAB0ABB0A19
:10131000B8CF8E3609F0BFCE7092050160920401FD
:101320008AEB90E0B6CE5101D82DC92D17CFA12C54
:10133000B12CD0E0C0E021CFC092C001D092C10159
:10134000E092C201F092C3014114510409F483CE2A
:101350000E943302882309F47ECE0E9400007BCED7
:10136000A1E21A2EAA1BBB1BFD010DC0AA1FBB1FA9
:10137000EE1FFF1FA217B307E407F50720F0A21B1B
:10138000B30BE40BF50B661F771F881F991F1A9488
:1013900069F760957095809590959B01AC01BD01B2
:1013A000CF010895EE0FFF1F0590F491E02D0994F1
:1013B0005058BB27AA270E94F0090C94630B0E9487
:1013C000550B38F00E945C0B20F039F49F3F19F464
:1013D00026F40C94520B0EF4E095E7FB0C944C0BA6
:1013E000E92F0E94740B58F3BA176207730784073A
:1013F000950720F079F4A6F50C94960B0EF4E09581
:101400000B2EBA2FA02D0B01B90190010C01CA01BE
:10141000A0011124FF27591B99F0593F50F4503E69
:1014200068F11A16F040A22F232F342F4427585F5B
:10143000F3CF469537952795A795F0405395C9F773
:101440007EF41F16BA0B620B730B840BBAF091502B
:10145000A1F0FF0FBB1F661F771F881FC2F70EC0CA
:10146000BA0F621F731F841F48F48795779567959D
:10147000B795F7959E3F08F0B0CF9395880F08F089
:101480009927EE0F9795879508950E94280B08F4E9
:1014900081E008950E945E0A0C94630B0E945C0B2D
:1014A00058F00E94550B40F029F45F3F29F00C944E
:1014B0004C0B51110C94970B0C94520B0E94740B13
:1014C00068F39923B1F3552391F3951B550BBB2773
:1014D000AA2762177307840738F09F5F5F4F220FB8
:1014E000331F441FAA1FA9F335D00E2E3AF0E0E8AF
:1014F00032D091505040E695001CCAF72BD0FE2FF9
:1015000029D0660F771F881FBB1F2617370748078C
:10151000AB07B0E809F0BB0B802DBF01FF27935844
:101520005F4F3AF09E3F510578F00C944C0B0C94B1
:10153000970B5F3FE4F3983ED4F3869577956795D4
:10154000B795F7959F5FC9F7880F911D9695879579
:1015500097F90895E1E0660F771F881FBB1F621798
:1015600073078407BA0720F0621B730B840BBA0B56
:10157000EE1F88F7E09508950E947C0B88F09F5736
:1015800098F0B92F9927B751B0F0E1F0660F771FA7
:10159000881F991F1AF0BA95C9F714C0B13091F09D
:1015A0000E94960BB1E008950C94960B672F782F4C
:1015B0008827B85F39F0B93FCCF386957795679562
:1015C000B395D9F73EF490958095709561957F4FCE
:1015D0008F4F9F4F0895E89409C097FB3EF4909574
:1015E0008095709561957F4F8F4F9F4F9923A9F0FC
:1015F000F92F96E9BB279395F6958795779567958B
:10160000B795F111F8CFFAF4BB0F11F460FF1BC0CE
:101610006F5F7F4F8F4F9F4F16C0882311F096E961
:1016200011C0772321F09EE8872F762F05C066230F
:1016300071F096E8862F70E060E02AF09A95660FC8
:10164000771F881FDAF7880F9695879597F9089581
:10165000990F0008550FAA0BE0E8FEEF16161706C3
:10166000E807F907C0F012161306E407F50798F02B
:10167000621B730B840B950B39F40A2661F0232B44
:10168000242B252B21F408950A2609F4A140A695C0
:101690008FEF811D811D089597F99F6780E870E0A5
:1016A00060E008959FEF80EC089500240A941616D8
:1016B000170618060906089500240A941216130640
:1016C000140605060895092E0394000C11F48823CE
:1016D00052F0BB0F40F4BF2B11F460FF04C06F5FEA
:1016E0007F4F8F4F9F4F089557FD9058440F551FC0
:1016F00059F05F3F71F04795880F97FB991F61F094
:101700009F3F79F087950895121613061406551F0A
:10171000F2CF4695F1DF08C0161617061806991F76
:10172000F1CF86957105610508940895E894BB276B
:1017300066277727CB0197F908950E94280B08F4B4
:101740008FEF08950E94B50B0C94630B0E94550B0C
:1017500038F00E945C0B20F0952311F00C944C0B98
:101760000C94520B11240C94970B0E94740B70F381
:10177000959FC1F3950F50E0551F629FF001729F36
:10178000BB27F00DB11D639FAA27F00DB11DAA1F45
:10179000649F6627B00DA11D661F829F2227B00D92
:1017A000A11D621F739FB00DA11D621F839FA00D1D
:1017B000611D221F749F3327A00D611D231F849F6D
:1017C000600D211D822F762F6A2F11249F575040C4
:1017D0009AF0F1F088234AF0EE0FFF1FBB1F661F3F
:1017E000771F881F91505040A9F79E3F510580F008
:1017F0000C944C0B0C94970B5F3FE4F3983ED4F39E
:10180000869577956795B795F795E7959F5FC1F7AB
:10181000FE2B880F911D9695879597F908950E9444
:10182000280B880B990B08950F931F93CF93DF9389
:101830008230910510F482E090E0E0919902F091FD
:101840009A0230E020E0B0E0A0E0309799F4211552
:10185000310509F44AC0281B390B24303105D8F56D
:101860008A819B816115710589F1FB0193838283D4
:10187000FE0111C04081518102811381481759072F
:10188000E0F04817590799F4109761F012960C93FD
:10189000129713961C933296CF01DF91CF911F912F
:1018A0000F9108950093990210939A02F4CF211595
:1018B000310551F04217530738F0A901DB019A01B5
:1018C000BD01DF01F801C1CFEF01F9CF90939A027A
:1018D00080939902CDCFFE01E20FF31F8193919384
:1018E0002250310939832883D7CF20919702309134
:1018F0009802232B41F42091080130910901309383
:10190000980220939702209106013091070121153A
:10191000310541F42DB73EB740910A0150910B01BA
:10192000241B350BE0919702F0919802E217F30720
:10193000A0F42E1B3F0B2817390778F0AC014E5F3F
:101940005F4F2417350748F04E0F5F1F50939802E2
:1019500040939702819391939FCFF0E0E0E09CCF7A
:10196000CF93DF930097E9F0FC0132971382128244
:10197000A0919902B0919A02ED0130E020E0109719
:10198000A1F420813181820F931F20919702309121
:1019900098022817390709F061C0F0939802E09384
:1019A0009702DF91CF910895EA01CE17DF07E8F59E
:1019B0004A815B819E0141155105B1F7E901FB8325
:1019C000EA8349915991C40FD51FEC17FD0761F4C3
:1019D000808191810296840F951FE9019983888304
:1019E000828193819B838A83F0E0E0E012968D915F
:1019F0009C9113970097B9F52D913C911197CD01CA
:101A00000296820F931F2091970230919802281717
:101A1000390739F6309751F510929A0210929902CF
:101A2000B0939802A0939702BCCFD383C283408126
:101A30005181840F951FC817D90761F44E5F5F4F1E
:101A400088819981480F591F518340838A819B81E6
:101A5000938382832115310509F0B0CFF0939A0268
:101A6000E09399029ECFFD01DC01C0CF1382128268
:061A7000D7CFF894FFCF70
:101A760010011E01000100009B0280000000000012
:101A8600D8023506EC02E902E40200000000D802A2
:101A96003706E102DE02D902000000006902C90130
:101AA600F601B60227020502190200000000D7025D
:101AB6003306D00342038F05CD0300000000D60293
:101AC60031063604EA03CF05E40300000000D6021F
:101AD6002F063604EA03FF05E7034C6F77506F774E
:101AE6006572004E6F726D616C005247424C6564C0
:101AF6000050686F746F53656E736F7200506F7429
:101B0600656E74696F6D65746572000D0A006E61AD
:0A1B16006E00696E66006F766600CF
:00000001FF
